{"abi":[{"type":"function","name":"buyNFT","inputs":[{"name":"nftContract","type":"address","internalType":"address"},{"name":"tokenId","type":"uint256","internalType":"uint256"}],"outputs":[],"stateMutability":"payable"},{"type":"function","name":"cancelListing","inputs":[{"name":"nftContract","type":"address","internalType":"address"},{"name":"tokenId","type":"uint256","internalType":"uint256"}],"outputs":[],"stateMutability":"nonpayable"},{"type":"function","name":"getListing","inputs":[{"name":"nftContract","type":"address","internalType":"address"},{"name":"tokenId","type":"uint256","internalType":"uint256"}],"outputs":[{"name":"","type":"tuple","internalType":"struct NFTMarketplace.Listing","components":[{"name":"seller","type":"address","internalType":"address"},{"name":"nftContract","type":"address","internalType":"address"},{"name":"tokenId","type":"uint256","internalType":"uint256"},{"name":"price","type":"uint256","internalType":"uint256"},{"name":"active","type":"bool","internalType":"bool"}]}],"stateMutability":"view"},{"type":"function","name":"listNFT","inputs":[{"name":"nftContract","type":"address","internalType":"address"},{"name":"tokenId","type":"uint256","internalType":"uint256"},{"name":"price","type":"uint256","internalType":"uint256"}],"outputs":[],"stateMutability":"nonpayable"},{"type":"function","name":"listings","inputs":[{"name":"","type":"address","internalType":"address"},{"name":"","type":"uint256","internalType":"uint256"}],"outputs":[{"name":"seller","type":"address","internalType":"address"},{"name":"nftContract","type":"address","internalType":"address"},{"name":"tokenId","type":"uint256","internalType":"uint256"},{"name":"price","type":"uint256","internalType":"uint256"},{"name":"active","type":"bool","internalType":"bool"}],"stateMutability":"view"},{"type":"function","name":"onERC721Received","inputs":[{"name":"","type":"address","internalType":"address"},{"name":"","type":"address","internalType":"address"},{"name":"","type":"uint256","internalType":"uint256"},{"name":"","type":"bytes","internalType":"bytes"}],"outputs":[{"name":"","type":"bytes4","internalType":"bytes4"}],"stateMutability":"nonpayable"},{"type":"event","name":"ListingCanceled","inputs":[{"name":"seller","type":"address","indexed":true,"internalType":"address"},{"name":"nftContract","type":"address","indexed":true,"internalType":"address"},{"name":"tokenId","type":"uint256","indexed":true,"internalType":"uint256"}],"anonymous":false},{"type":"event","name":"NFTListed","inputs":[{"name":"seller","type":"address","indexed":true,"internalType":"address"},{"name":"nftContract","type":"address","indexed":true,"internalType":"address"},{"name":"tokenId","type":"uint256","indexed":true,"internalType":"uint256"},{"name":"price","type":"uint256","indexed":false,"internalType":"uint256"}],"anonymous":false},{"type":"event","name":"NFTSold","inputs":[{"name":"seller","type":"address","indexed":true,"internalType":"address"},{"name":"buyer","type":"address","indexed":true,"internalType":"address"},{"name":"nftContract","type":"address","indexed":true,"internalType":"address"},{"name":"tokenId","type":"uint256","indexed":false,"internalType":"uint256"},{"name":"price","type":"uint256","indexed":false,"internalType":"uint256"}],"anonymous":false},{"type":"error","name":"ReentrancyGuardReentrantCall","inputs":[]}],"bytecode":{"object":"0x6080604052348015600e575f5ffd5b5060015f55610c16806100205f395ff3fe608060405260043610610053575f3560e01c806207df3014610057578063150b7a02146100f157806388700d1c14610134578063a82ba76f1461022f578063ad05f1b414610244578063b2ddee0614610263575b5f5ffd5b348015610062575f5ffd5b506100b7610071366004610a4e565b600160208181525f93845260408085209091529183529120805491810154600282015460038301546004909301546001600160a01b039485169490921692909160ff1685565b604080516001600160a01b0396871681529590941660208601529284019190915260608301521515608082015260a0015b60405180910390f35b3480156100fc575f5ffd5b5061011b61010b366004610a8c565b630a85bd0160e11b949350505050565b6040516001600160e01b031990911681526020016100e8565b34801561013f575f5ffd5b506101e261014e366004610a4e565b6040805160a0810182525f80825260208201819052918101829052606081018290526080810191909152506001600160a01b038083165f908152600160208181526040808420868552825292839020835160a08101855281548616815292810154909416908201526002830154918101919091526003820154606082015260049091015460ff161515608082015292915050565b6040516100e8919081516001600160a01b03908116825260208084015190911690820152604080830151908201526060808301519082015260809182015115159181019190915260a00190565b61024261023d366004610a4e565b610282565b005b34801561024f575f5ffd5b5061024261025e366004610b6d565b6104ff565b34801561026e575f5ffd5b5061024261027d366004610a4e565b61088f565b61028a610a0f565b6001600160a01b0382165f9081526001602090815260408083208484529091529020600481015460ff166102fd5760405162461bcd60e51b81526020600482015260156024820152744c697374696e67206973206e6f742061637469766560581b60448201526064015b60405180910390fd5b806003015434146103425760405162461bcd60e51b815260206004820152600f60248201526e496e636f727265637420707269636560881b60448201526064016102f4565b80546001600160a01b0316330361039b5760405162461bcd60e51b815260206004820152601f60248201527f53656c6c65722063616e6e6f7420627579207468656972206f776e204e46540060448201526064016102f4565b6004818101805460ff19169055604051632142170760e11b81523091810191909152336024820152604481018390526001600160a01b038416906342842e0e906064015f604051808303815f87803b1580156103f5575f5ffd5b505af1158015610407573d5f5f3e3d5ffd5b505082546040515f93506001600160a01b03909116915034908381818185875af1925050503d805f8114610456576040519150601f19603f3d011682016040523d82523d5f602084013e61045b565b606091505b505090508061049e5760405162461bcd60e51b815260206004820152600f60248201526e151c985b9cd9995c8819985a5b1959608a1b60448201526064016102f4565b815460038301546040805186815260208101929092526001600160a01b038781169333939116917f1b81ea9818518fffa07ee623cfd9ce8af1900f3e0c918f2ca4fcfc9745cdc165910160405180910390a450506104fb60015f55565b5050565b610507610a0f565b5f81116105565760405162461bcd60e51b815260206004820152601f60248201527f5072696365206d7573742062652067726561746572207468616e207a65726f0060448201526064016102f4565b6040516331a9108f60e11b815260048101839052839033906001600160a01b03831690636352211e90602401602060405180830381865afa15801561059d573d5f5f3e3d5ffd5b505050506040513d601f19601f820116820180604052508101906105c19190610b9f565b6001600160a01b0316146106105760405162461bcd60e51b8152602060048201526016602482015275165bdd48191bdb89dd081bdddb881d1a1a5cc813919560521b60448201526064016102f4565b60405163020604bf60e21b81526004810184905230906001600160a01b0383169063081812fc90602401602060405180830381865afa158015610655573d5f5f3e3d5ffd5b505050506040513d601f19601f820116820180604052508101906106799190610b9f565b6001600160a01b031614806106f5575060405163e985e9c560e01b81523360048201523060248201526001600160a01b0382169063e985e9c590604401602060405180830381865afa1580156106d1573d5f5f3e3d5ffd5b505050506040513d601f19601f820116820180604052508101906106f59190610bc1565b6107415760405162461bcd60e51b815260206004820152601860248201527f4d61726b6574706c616365206e6f7420617070726f766564000000000000000060448201526064016102f4565b6040805160a081018252338082526001600160a01b0387811660208085018281528587018a8152606087018a81526001608089018181525f9687528186528a87208e885290955294899020975188546001600160a01b0319908116918816919091178955925194880180549093169486169490941790915551600286015590516003850155516004938401805460ff19169115159190911790559251632142170760e11b81529182015230602482015260448101859052908216906342842e0e906064015f604051808303815f87803b15801561081c575f5ffd5b505af115801561082e573d5f5f3e3d5ffd5b5050505082846001600160a01b0316336001600160a01b03167fbeab3a2bb824b124a8a1eb465eec003338d61b414db132d37e9b3a984fdcf0108560405161087891815260200190565b60405180910390a45061088a60015f55565b505050565b610897610a0f565b6001600160a01b0382165f9081526001602090815260408083208484529091529020600481015460ff166109055760405162461bcd60e51b81526020600482015260156024820152744c697374696e67206973206e6f742061637469766560581b60448201526064016102f4565b80546001600160a01b0316331461095e5760405162461bcd60e51b815260206004820152601e60248201527f4f6e6c792073656c6c65722063616e2063616e63656c206c697374696e67000060448201526064016102f4565b6004818101805460ff19169055604051632142170760e11b81523091810191909152336024820152604481018390526001600160a01b038416906342842e0e906064015f604051808303815f87803b1580156109b8575f5ffd5b505af11580156109ca573d5f5f3e3d5ffd5b50506040518492506001600160a01b038616915033907ffb87149f10f1ffda9c1df55fae0d68fe643c8be0790eec2f859205ed312cd68b905f90a4506104fb60015f55565b60025f5403610a3157604051633ee5aeb560e01b815260040160405180910390fd5b60025f55565b6001600160a01b0381168114610a4b575f5ffd5b50565b5f5f60408385031215610a5f575f5ffd5b8235610a6a81610a37565b946020939093013593505050565b634e487b7160e01b5f52604160045260245ffd5b5f5f5f5f60808587031215610a9f575f5ffd5b8435610aaa81610a37565b93506020850135610aba81610a37565b925060408501359150606085013567ffffffffffffffff811115610adc575f5ffd5b8501601f81018713610aec575f5ffd5b803567ffffffffffffffff811115610b0657610b06610a78565b604051601f8201601f19908116603f0116810167ffffffffffffffff81118282101715610b3557610b35610a78565b604052818152828201602001891015610b4c575f5ffd5b816020840160208301375f6020838301015280935050505092959194509250565b5f5f5f60608486031215610b7f575f5ffd5b8335610b8a81610a37565b95602085013595506040909401359392505050565b5f60208284031215610baf575f5ffd5b8151610bba81610a37565b9392505050565b5f60208284031215610bd1575f5ffd5b81518015158114610bba575f5ffdfea264697066735822122074801229bb15c9bfa6dfb181f54799ea5c600e9b5b8f4b663b7dbea23a1a76f264736f6c634300081c0033","linkReferences":{}},"methodIdentifiers":{"buyNFT(address,uint256)":"a82ba76f","cancelListing(address,uint256)":"b2ddee06","getListing(address,uint256)":"88700d1c","listNFT(address,uint256,uint256)":"ad05f1b4","listings(address,uint256)":"0007df30","onERC721Received(address,address,uint256,bytes)":"150b7a02"},"id":37}